:020000040800F2
:1000000018040020010100087D04000829030008ED
:10001000790300084901000871060008000000008B
:10002000000000000000000000000000CD040008F7
:10003000BD01000800000000A9040008ED0500084B
:100040001B0100081B0100081B0100081B01000820
:100050001B0100081B0100081B0100081B01000810
:100060001B0100081B0100081B0100081B01000800
:100070001B0100081B0100081B0100081B010008F0
:100080001B0100081B0100081B0100081B010008E0
:100090001B0100081B0100081B0100081B010008D0
:1000A0001B0100081B0100081B0100081B010008C0
:1000B0001B010008650600081B0100081B01000861
:1000C0001B0100081B0100081B0100081B010008A0
:1000D0001B0100081B0100081B0100081B01000890
:1000E0001B0100081B0100081B010008DFF80CD0F1
:1000F00000F018F800480047930600081804002094
:100100000648804706480047FEE7FEE7FEE7FEE7B1
:10011000FEE7FEE7FEE7FEE7FEE7FEE7050600086E
:10012000ED000008064C074D06E0E06840F00103D2
:1001300094E8070098471034AC42F6D3FFF7DAFF93
:10014000C4060008E406000800BFFEE708B5012168
:10015000042000F0ABF9FF20ADF8000010208DF86E
:10016000030003208DF802006946044800F044F8BB
:10017000BDF80010014800F0D3F808BD00080140A8
:1001800010B500F0FBF800F039F900F017F900F0B5
:1001900055F910BD10B500F0FDF800F03BF900F086
:1001A00019F900F057F910BD10B500F0FFF800F094
:1001B0003DF900F01BF900F059F910BD704700003F
:1001C00070B504460A4800684FF47A71B0FBF1F547
:1001D000284600F0F1F90021481E00F051F90548C9
:1001E000046000BF034800680028FBD170BD000018
:1001F00000000020140000202DE9F04102460025F7
:100200000026002000230024002791F803C00CF0F2
:100210000F0591F803C00CF0100CBCF1000F03D0D7
:1002200091F802C04CEA050591F800C0BCF1000F3E
:1002300031D0146800202BE04FF0010C0CFA00F3D1
:10024000B1F800C00CEA03069E4220D183004FF0B3
:100250000F0C0CFA03F7BC4305FA03FC4CEA040448
:1002600091F803C0BCF1280F06D14FF0010C0CFA35
:1002700000FCC2F814C00AE091F803C0BCF1480FBA
:1002800005D14FF0010C0CFA00FCC2F810C0401C64
:100290000828D1D31460B1F800C0BCF1FF0F34DDE1
:1002A000546800202EE000F1080C4FF0010808FA15
:1002B0000CF3B1F800C00CEA03069E4221D1830082
:1002C0004FF00F0C0CFA03F7BC4305FA03FC4CEAA1
:1002D000040491F803C0BCF1280F05D100F1080C0B
:1002E00008FA0CF8C2F8148091F803C0BCF1480F6A
:1002F00007D100F1080C4FF0010808FA0CF8C2F819
:100300001080401C0828CED35460BDE8F08102461E
:10031000002093680B400BB1012000E000207047E3
:10032000416170470161704700BFFEE708B50121D8
:10033000082000F0BBF80320ADF8000048208DF83D
:10034000030069460148FFF757FF08BD000C014054
:1003500010B501210748FFF7DAFF08B9012010BDE9
:1003600002210448FFF7D3FF08B90220F7E7002075
:10037000F5E70000000C014000BFFEE710B51021BA
:100380000348FFF7CFFF20210148FFF7C9FF10BD49
:100390000008014010B510210348FFF7C1FF2021DC
:1003A0000148FFF7BFFF10BD0008014010B5302124
:1003B0000148FFF7B5FF10BD0008014010B540210E
:1003C0000348FFF7AFFF80210148FFF7A9FF10BDE9
:1003D0000008014010B540210348FFF7A1FF80212C
:1003E0000148FFF79FFF10BD0008014010B5C02174
:1003F0000148FFF795FF10BD0008014010B504212A
:100400000348FFF78DFF08210148FFF78BFF10BD60
:100410000008014010B504210348FFF783FF0821BD
:100420000148FFF77DFF10BD0008014010B50C2109
:100430000148FFF775FF10BD0008014010B501210C
:100440000348FFF76FFF02210148FFF769FF10BD66
:100450000008014010B501210348FFF761FF0221A8
:100460000148FFF75FFF10BD0008014010B50321F0
:100470000148FFF755FF10BD00080140704700001C
:1004800010B5002807DA0A07140E054A00F00F031A
:100490001B1FD45403E00A07130E024A135410BD65
:1004A00018ED00E000E400E07047000029B1064AC2
:1004B00092690243044B9A6104E0034A92698243C1
:1004C000014B9A617047000000100240704710B560
:1004D00000F002F810BD00000CB500200190009063
:1004E0003348006840F480303149086000BF30482C
:1004F000006800F4003000900198401C01900098C2
:1005000018B90198B0F5A06FF1D12948006800F43E
:10051000003010B10120009001E000200090009810
:10052000012843D12348006840F0100021490860A9
:100530000846006820F0030008600846006840F0A4
:10054000020008601A484068194948600846406837
:1005500048600846406840F480604860084640684B
:1005600020F47C1048600846406840F4E810486079
:100570000846006840F08070086000BF0C480068C2
:1005800000F000700028F9D00948406820F003000E
:10059000074948600846406840F00200486000BFD4
:1005A0000348406800F00C000828F9D10CBD000099
:1005B000001002400020024010B50446B4F1807FD4
:1005C00001D3012010BD24F07F40401E4FF0E021F8
:1005D00048610F214FF0FF30FFF752FF00204FF02E
:1005E000E0218861072008610020EBE704480068EB
:1005F000002804DD02480068401E01490860704779
:100600001400002010B51348006840F001001149A3
:10061000086008464068104908400E49486008468E
:1006200000680E4908400B4908600846006820F43D
:10063000802008600846406820F4FE0048604FF4BF
:100640001F008860FFF743FF4FF000600449086017
:1006500010BD0000001002400000FFF8FFFFF6FE92
:1006600008ED00E0014800887047000010040040D9
:1006700000BFFEE702E008C8121F08C1002AFAD135
:1006800070477047002001E001C1121F002AFBD112
:1006900070470024FFF75AFDFFF748FE11E0FFF70F
:1006A00057FE0446012C02D1FFF774FD06E0022C30
:1006B00002D1FFF765FD01E0FFF776FD0A20FFF7A5
:1006C0007FFDECE7E40600080000002018000000B1
:1006D00074060008FC060008180000200004000052
:1006E0008406000800A24A04000000000000000088
:0C06F000010203040607080900000000D6
:04000005080000ED02
:00000001FF
